:100000000C9434000C945F000C947A000C94510012
:100010000C9495000C9451000C9451000C945100D8
:100020000C9451000C9451000C9451000C9451000C
:100030000C9451000C9451000C9451000C945100FC
:100040000C9451000C9451000C9451000C945100EC
:100050000C9451000C9451000C9451000C945100DC
:100060000C9451000C94510011241FBECFEFD4E02A
:10007000DEBFCDBF11E0A0E0B1E0EEE1F5E002C0EF
:1000800005900D92A432B107D9F721E0A4E2B1E0C6
:1000900001C01D92A033B207E1F70E94B3000C9497
:1000A0008D020C940000FC018191811101C0089522
:1000B0009091C00095FFFCCF8093C600F5CF8F9341
:1000C0009F934A9B0BC080918400909185009093F0
:1000D0002E0180932D019F918F911895809184001E
:1000E0009091850090932C0180932B0181E0809367
:1000F0002A01F1CF8F939F934B9B0BC0809184007B
:100100009091850090932901809328019F918F9170
:100110001895809184009091850090932701809399
:10012000260181E080932501F1CF1F921FB61F9217
:1001300011242F938F939F9396B1292F207194FBB5
:10014000882780F990910001913021F4211102C09B
:1001500090932401809300019F918F912F911F9084
:100160001FBE1F901895CDB7DEB762970FB6F894F3
:10017000DEBF0FBECDBF209A389A8AB1837F8AB97D
:1001800084B1866084B98AB180668AB93C98449A01
:1001900085E08093690083E08CBB8DBB9091680003
:1001A00092609093680090916C00906190936C00C5
:1001B00093EA94BD85BD1092800081E08093810018
:1001C00082E08093C0001092C5008CE08093C40050
:1001D00088E18093C10086E08093C200789417BCC8
:1001E0008FEF88BD29982FE54AEE80E021504040EE
:1001F0008040E1F700C0000017BC18BC299881E0DE
:1002000091E00E9453001A821982FE01339688E021
:10021000DF011D928A95E9F7E12CF12C512C9924EC
:1002200093948824839477247A948AE3C82ED12CDB
:1002300092E0692E2AE0A22EB12C8091240188231D
:1002400071F010922401982409F4D2C077BC18BC34
:1002500029988FE19EE40197F1F700C00000109209
:100260002A01289800C0289A93E09A95F1F7000097
:10027000289881E49CE920912A01211103C001976B
:1002800009F0BBC080912A01882309F4B8C080918D
:100290002B0190912C0120912D0130912E01821B78
:1002A000930B9C01255631092B3C344708F0A7C01D
:1002B000B6010E9430028B018DE292E20197F1F7C4
:1002C00000C0000010922501409800C0409A93E0C1
:1002D0009A95F1F70000409881E49CE9209125016E
:1002E000211103C0019709F08DC080912501882359
:1002F000D9F0809126019091270120912801309119
:100300002901821B930B9C01255631092B3C344754
:1003100058F4B6010E943002073EB3E01B0719F003
:100320006017710708F48B01852D90E0E1E0F0E0A3
:10033000EC0FFD1FE80FF91F2081223009F064C087
:10034000FA940333110508F064C0F39422E0E1E06D
:10035000F0E0EC0FFD1FE80FF91F20830196B501B7
:100360000E944402582E992009F475C025E02F15EB
:1003700008F057C080912F018230B0F42A9883EDA5
:1003800090E30197F1F700C000002A9AAFE1BEE4C4
:100390001197F1F700C000002A9883ED90E30197D0
:1003A000F1F700C000002A9A60922F0190E08FEFD1
:1003B00097BD18BC882309F44CC0299A8EE191E0BE
:1003C0000E9453004AE0BE01655F7F4FC8010E9452
:1003D0005802CE010B960E9453008BE191E00E94DF
:1003E00053008DE292E20197F1F700C0000025CFA3
:1003F00017BC18BC29982A9A2CCF00003CCF07EED6
:1004000013E05ACF00006ACF213009F09ACFEA9466
:1004100098CF20E00536110508F099CFE39421E04C
:1004200096CF95E09E1580F480912F01811108C030
:100430002A98A3EDB0E31197F1F700C000002A9AC3
:1004400080922F0194EBB3CF10922F019FEF80E0A9
:10045000AFCF2998B3CF17BC18BC29982A9AAECF32
:10046000AA1BBB1B51E107C0AA1FBB1FA617B707DA
:1004700010F0A61BB70B881F991F5A95A9F78095F6
:100480009095BC01CD01089597FB072E16F40094BA
:1004900007D077FD09D00E94300207FC05D03EF45A
:1004A000909581959F4F0895709561957F4F089520
:1004B000BB274A3031F4992322F4BDE2909581950F
:1004C0009F4F0C946402BB27FB015527AA27880F76
:1004D000991FAA1FA41710F0A41B83955051B9F7B8
:1004E000A05DAA3308F0A95DA193009779F7B11137
:1004F000B1931192CB010C947D02DC01FC01672FBA
:1005000071917723E1F7329704C07C916D937083EA
:0E0510006291AE17BF07C8F30895F894FFCFAD
:10051E00014475616C20756C747261736F6E6963E2
:10052E0020696E206C696E2061363A0D0A004449CE
:04053E0053543A00D8
:00000001FF
