:100000000C9434000C947C000C9497000C945100D8
:100010000C94B2000C9451000C9451000C945100BB
:100020000C9451000C9451000C9451000C9451000C
:100030000C9451000C9451000C9451000C945100FC
:100040000C9451000C9451000C9451000C945100EC
:100050000C9451000C9451000C9451000C945100DC
:100060000C9451000C94510011241FBECFEFD4E02A
:10007000DEBFCDBF11E0A0E0B1E0E4E7F5E002C0F3
:1000800005900D92A635B107D9F721E0A6E5B1E0BC
:1000900001C01D92A236B207E1F70E94D0000C9475
:1000A000B8020C940000FC018191811101C00895F7
:1000B0009091C00095FFFCCF8093C600F5CFCF9301
:1000C000DF93CDB7DEB728970FB6F894DEBF0FBE2B
:1000D000CDBF4AE0BE016F5F7F4F0E948302CE0119
:1000E00001960E94530028960FB6F894DEBF0FBE0B
:1000F000CDBFDF91CF9108958F939F934A9B0BC003
:1001000080918400909185009093600180935F01BD
:100110009F918F9118958091840090918500909384
:100120005E0180935D0181E080935C01F1CF8F934C
:100130009F934B9B0BC0809184009091850090937E
:100140005B0180935A019F918F9118958091840053
:1001500090918500909359018093580181E080939C
:100160005701F1CF1F921FB61F9211242F938F9327
:100170009F9396B1292F207194FB882780F9909145
:100180000001913021F4211102C090935601809317
:1001900000019F918F912F911F901FBE1F90189566
:1001A000CDB7DEB72A970FB6F894DEBF0FBECDBF2E
:1001B000209A389A8AB1837F8AB984B1866084B9DB
:1001C0008AB180668AB93C98449A85E08093690038
:1001D00083E08CBB8DBB9091680092609093680027
:1001E00090916C00906190936C0093EA94BD85BDF2
:1001F0001092800081E08093810082E08093C000B3
:100200001092C5008CE08093C40088E18093C10007
:1002100086E08093C200789417BC8FEF88BD299840
:100220002FE54AEE60E0215040406040E1F700C019
:10023000000017BC18BC299885E191E00E9453008A
:100240001A821982FE01339688E0DF011D928A9599
:10025000E9F7612C712C10E001E0552453944424FB
:100260004A949AE3A92EB12C22E0322E3AE0832E52
:10027000912C80915601882371F01092560105252A
:1002800009F470C047BC18BC29988FE19EE401971F
:10029000F1F700C0000010925C01289800C0289A75
:1002A00093E09A95F1F70000289881E49CE9209169
:1002B0005C01211103C0019709F059C080915C01D4
:1002C000882309F456C080915D0190915E012091D0
:1002D0005F0130916001821B930B9C01255631090F
:1002E0002B3C344708F045C0B5010E945B029B01DE
:1002F0008DE292E20197F1F700C0000010925701E1
:10030000409800C0409A93E09A95F1F70000409819
:1003100081E49CE940915701411102C0019761F5C8
:1003200080915701882351F1809158019091590192
:1003300040915A0150915B01841B950BAC014556CD
:1003400051094B3C5447D0F4B5010E945B026B014C
:10035000273EB3E03B0721F079016217730798F459
:10036000760111C017BC18BC29982A9A8ECF0000BC
:100370009ECF27EE33E0BCCF0000CCCF790187EED3
:10038000C82E83E0D82E812F90E0E1E0F0E0EC0F62
:10039000FD1FE80FF91F4081423009F05FC07A94D9
:1003A00043E3E416F10408F05EC0739442E0E1E038
:1003B000F0E0EC0FFD1FE80FF91F40830196B40138
:1003C0000E946F02182F002309F470C085E0871582
:1003D00008F052C0809161018230B0F42A98A3EDF8
:1003E000B0E31197F1F700C000002A9A8FE19EE474
:1003F0000197F1F700C000002A98A3EDB0E3119730
:10040000F1F700C000002A9A3092610190E08FEF6E
:1004100097BD18BC882309F447C0299AC9010E94D6
:100420005F0083E491E00E945300C6010E945F00D8
:100430008BE491E00E945300C7010E945F008AE0B4
:1004400091E0002311F081E091E00E945300ADE2C1
:10045000B2E21197F1F700C000000BCF413009F074
:100460009FCF6A949DCF40E065E6E616F10408F060
:100470009ECF639441E09BCFB5E0B61580F48091A8
:100480006101811108C02A9883ED90E30197F1F78B
:1004900000C000002A9A5092610194EBB8CF1092EC
:1004A00061019FEF80E0B4CF2998B8CF17BC18BC8A
:1004B00029982A9AB3CFAA1BBB1B51E107C0AA1FD8
:1004C000BB1FA617B70710F0A61BB70B881F991FF5
:1004D0005A95A9F780959095BC01CD01089597FB99
:1004E000072E16F4009407D077FD09D00E945B0216
:1004F00007FC05D03EF4909581959F4F0895709527
:1005000061957F4F0895BB274A3031F4992322F437
:10051000BDE2909581959F4F0C948F02BB27FB0104
:100520005527AA27880F991FAA1FA41710F0A41BEC
:1005300083955051B9F7A05DAA3308F0A95DA19346
:10054000009779F7B111B1931192CB010C94A802E5
:10055000DC01FC01672F71917723E1F7329704C02A
:100560007C916D9370836291AE17BF07C8F30895B5
:04057000F894FFCF2D
:100574000120205B454E5D0D0A0020205B4D555443
:10058400455D0D0A004475616C20756C747261736D
:100594006F6E6963207265616479204020465F4311
:1005A40050553D314D487A2C2039363030627073C5
:1005B4000D0A0020636D2020443A0020636D202042
:0605C4004D696E3A0000D3
:00000001FF
