:100000000C9434000C947C000C9451000C9451001E
:100010000C9451000C9451000C9451000C9451001C
:100020000C9451000C9451000C9451000C9451000C
:100030000C9451000C9451000C9451000C945100FC
:100040000C9451000C9451000C9451000C945100EC
:100050000C9451000C9451000C9451000C945100DC
:100060000C9451000C94510011241FBECFEFD4E02A
:10007000DEBFCDBF11E0A0E0B1E0E2ECF2E002C0F3
:1000800005900D92A834B107D9F721E0A8E4B1E0BA
:1000900001C01D92AE34B207E1F70E94A3000C9498
:1000A0005F010C940000FC018191811101C0089551
:1000B0009091C00095FFFCCF8093C600F5CFCF9301
:1000C000DF93CDB7DEB728970FB6F894DEBF0FBE2B
:1000D000CDBF4AE0BE016F5F7F4F0E942A01CE0173
:1000E00001960E94530028960FB6F894DEBF0FBE0B
:1000F000CDBFDF91CF9108951F921FB61F9211249B
:100100008F939F934A9B11C08091840090918500AA
:1001100090934D0180934C0181E0809349019F9120
:100120008F911F901FBE1F90189580918400909111
:10013000850090934B0180934A011092490181E020
:1001400080934801ECCF209A529882E08093C000BF
:100150001092C5008CE08093C40088E18093C100B8
:1001600086E08093C2001092800081E0809381003D
:10017000809369008CBB8DBB789480E091E00E94F5
:10018000530080E895E20E945F0089E191E00E94BF
:10019000530081E090E00E945F0086E291E00E94BF
:1001A00053000AE310E01092480110924901289888
:1001B00000C0289A23E02A95F1F70000289881E4EE
:1001C0009CE920914801211102C0019751F58091CD
:1001D0004801882341F1C0914A01D0914B0180919F
:1001E0004C0190914D01C81BD90BC436D105D8F0F4
:1001F0008CE291E00E945300CE01B8010E941601EA
:10020000CB010E945F0087E391E00E9453008FE9D9
:1002100096E821E0815090402040E1F700C00000C6
:10022000C2CF0000CECF8DE391E0EFCFAA1BBB1B66
:1002300051E107C0AA1FBB1FA617B70710F0A61BE6
:10024000B70B881F991F5A95A9F780959095BC0107
:10025000CD010895BB274A3031F4992322F4BDE241
:10026000909581959F4F0C943601BB27FB01552734
:10027000AA27880F991FAA1FA41710F0A41B839503
:100280005051B9F7A05DAA3308F0A95DA19300977A
:1002900079F7B111B1931192CB010C944F01DC01AC
:1002A000FC01672F71917723E1F7329704C07C91AD
:1002B0006D9370836291AE17BF07C8F30895F894E9
:0202C000FFCF6E
:1002C200556C747261736F6E696320546573742028
:1002D200537461727420402000206270732C204697
:1002E2005F4350553D004D487A0D0A0044697374CE
:1002F200616E63653A200020636D0D0A004E6F2027
:080302006563686F0D0A00003D
:00000001FF
