:100000000C9434000C947C000C9497000C945100D8
:100010000C94B2000C9451000C9451000C945100BB
:100020000C9451000C9451000C9451000C9451000C
:100030000C9451000C9451000C9451000C945100FC
:100040000C9451000C9451000C94D0000C9451006D
:100050000C9451000C9451000C9451000C945100DC
:100060000C9451000C94510011241FBECFEFD4E02A
:10007000DEBFCDBF11E0A0E0B1E0E0E1F7E002C0FB
:1000800005900D92AE33B107D9F721E0AEE3B1E0B0
:1000900001C01D92AC35B207E1F70E9400010C943B
:1000A00086030C940000FC018191811101C0089528
:1000B0009091C00095FFFCCF8093C600F5CFCF9301
:1000C000DF93CDB7DEB728970FB6F894DEBF0FBE2B
:1000D000CDBF4AE0BE016F5F7F4F0E944903CE0152
:1000E00001960E94530028960FB6F894DEBF0FBE0B
:1000F000CDBFDF91CF9108958F939F934A9B0BC003
:10010000809184009091850090934A0180934901E9
:100110009F918F9118958091840090918500909384
:1001200048018093470181E080934601F1CF8F938E
:100130009F934B9B0BC0809184009091850090937E
:100140004501809344019F918F911895809184007F
:1001500090918500909343018093420181E08093C8
:100160004101F1CF1F921FB61F9211242F938F933D
:100170009F9396B1292F207194FB882780F9909145
:100180000001913021F4211102C09093400180932D
:1001900000019F918F912F911F901FBE1F90189566
:1001A0001F921FB61F9211248F939F93EF93FF937B
:1001B0008091C6008A30C1F08D30B1F090913F013E
:1001C0009F3050F4E0913F0191E09E0F90933F01EA
:1001D000F0E0E45BFE4F8083FF91EF919F918F9160
:1001E0001F901FBE1F901895E0913F01F0E0E45B67
:1001F000FE4F108210923F0181E080933E01ECCFD0
:10020000CDB7DEB72A970FB6F894DEBF0FBECDBFCD
:1002100084B1876084B9389A8AB180668AB98AB114
:10022000837F8AB93C98449A85E08093690093E083
:100230009DBB8091680082608093680080916C0013
:10024000806180936C0083EA84BD95BD109280002C
:1002500081E08093810082E08093C0001092C5000D
:100260008CE08093C40088E98093C10086E080938D
:10027000C200789417BC8FEF88BD29982FE54AEE0D
:1002800080E0215040408040E1F700C0000017BCF2
:1002900018BC299887E091E00E9453001A821982C5
:1002A000FE01339688E0DF011D928A95E9F7912CD3
:1002B00000E010E08824839477247A949AE3C92E8E
:1002C000D12C22E0622E3AE0A32EB12C80913E0187
:1002D000882359F110923E0180914C01873509F035
:1002E0002FC180914D018A3341F48EE491E00E9448
:1002F0002B03909304018093030182E291E00E941A
:10030000530080910301909104010E945F0089E2F3
:1003100091E00E94530080910501909106010E9496
:100320005F008FE191E00E9453008091400188239B
:1003300099F11092400180910201882309F429C1AA
:1003400080910101882581708093020180930101D1
:100350008DE291E00E9453008091020190E00E94A2
:100360005F0085E391E00E9453008091010190E0DD
:100370000E945F008FE191E00E9453008091020192
:10038000882309F409C177BC18BC29988FE19EE441
:100390000197F1F700C0000010924601289800C0B4
:1003A000289A93E09A95F1F70000289881E49CE957
:1003B00020914601211103C0019709F0EFC08091FF
:1003C0004601882309F4ECC08091470190914801CF
:1003D0002091490130914A01821B930B9C012556C3
:1003E00031092B3C344708F0DBC0B6010E940303FF
:1003F0007B018DE292E20197F1F700C000001092BC
:100400004101409800C0409A93E09A95F1F70000AE
:10041000409881E49CE920914101211103C001979A
:1004200009F0C3C0809141018823E1F0809142012D
:10043000909143012091440130914501821B930B1F
:100440009C01255631092B3C344760F4B6010E94CB
:100450000303B7EEEB16B3E0FB0619F06E157F054C
:1004600008F47B01812F90E0E1E0F0E0EC0FFD1F4C
:10047000E80FF91F2081223009F099C00150209126
:100480000501309106012E153F0508F495C00F5F58
:1004900022E0E1E0F0E0EC0FFD1FE80FF91F208300
:1004A0000196B5010E941703182F063008F490C07A
:1004B00081E090914B01923008F080E060924B0116
:1004C00020E09FEF30910201332309F493C027BD50
:1004D00018BC992309F490C0299A9091010199239D
:1004E000E1F08823D1F080914B012A98823009F005
:1004F00085C083ED90E30197F1F700C000002A9AD0
:10050000AFE1BEE41197F1F700C000002A9883ED37
:1005100090E30197F1F700C000002A9A88E391E088
:100520000E945300C7010E945F008FE191E00E948A
:1005300053008DE292E20197F1F700C00000C6CEB1
:10054000843479F08C34D9F0823409F0D6CE80919D
:100550004D018111D2CE8091010188258093010146
:10056000CCCE80914D018A3309F0C7CE8EE491E064
:100570000E942B039093060180930501BECE8091CB
:100580004D018111BACE809102018825809302012C
:10059000B4CE81E090E0D7CE17BCF6CE000008CFF5
:1005A00087EEE82E83E0F82E24CF000034CF2130F0
:1005B00009F065CF9A9463CF209103013091040133
:1005C0002E153F0518F0939421E063CF20E061CF12
:1005D00025E0291548F481E090914B01911180E0CC
:1005E00080924B0124EB6DCF10924B0180E02FEFF6
:1005F00090E068CF17BC18BC29986FCFA3EDB0E38B
:100600001197F1F788CFAA1BBB1B51E107C0AA1FA6
:10061000BB1FA617B70710F0A61BB70B881F991FA3
:100620005A95A9F780959095BC01CD01089597FB47
:10063000072E16F4009407D077FD09D00E9403031B
:1006400007FC05D03EF4909581959F4F08957095D5
:1006500061957F4F0895FC0188279927E89421919F
:100660002032E9F3293010F02E30C8F32B3241F05C
:100670002D3239F4689404C00E945403820F911DF6
:10068000219120532A30C0F31EF4909581959F4FFD
:100690000895BB274A3031F4992322F4BDE29095A6
:1006A00081959F4F0C945D037AE0979F902D879FD3
:1006B000802D910D11240895BB27FB015527AA27F2
:1006C000880F991FAA1FA41710F0A41B83955051DF
:1006D000B9F7A05DAA3308F0A95DA193009779F757
:1006E000B111B1931192CB010C947603DC01FC01A2
:1006F000672F71917723E1F7329704C07C916D9356
:1007000070836291AE17BF07C8F30895F894FFCFC6
:10071000010101640032004475616C20756C7472D3
:1007200061736F6E69632072656164792E2E2E0D80
:100730000A0043464720573D0020443D00535441A2
:0E07400054453A4C002C4200444953543A00B0
:00000001FF
